:040000008031202803
:100008007E14803100308600003087007E013F1D5D
:100018000E280F2814288031312080317E013F11AD
:100028004E01901C182819281E288131C2218031C0
:100038004E0190107E10090080312228F001F10154
:10004800F201F301F401F501F6014001A001A1015B
:10005800A2017E1040018131BA297E013F113D0C79
:10006800890C0139013CF700F70DF70D3D087706BB
:10007800FB397706BD003E0C890C0139013CF700BD
:10008800F70DF70D3E087706FB397706BE004501E8
:100098000C08FB008C01DE280130F5000130F0006F
:1000A8000030F1000130F400F3010130F2004E019C
:1000B80090109A14EE281D307B02031C64286528D2
:1000C800D7288B307B0203186A286B28D72853302F
:1000D8007B0203187028712889280130F307023041
:1000E8007306031D782879289B280130F035F10D17
:1000F800890B7A287208F700F8017708F004780865
:10010800F1040130F407F3019B287208013CF20066
:100118000130F035F10D890B8D287208F700F801D0
:100128007708F0047808F1040130F40787280E30C6
:100138007406031DA028A128EE287E013D113E1556
:100148004E0190107108F8007008F7000B30F8366F
:10015800F70C890BAB287718B228B4280130B528DA
:1001680000304001A0007108F8007008F700063060
:10017800F836F70C890BBC2877081F39A1007008DE
:100188003F39A200711AC928CA28CF284030F9007F
:100198000030FA00D128F901FA017908A204F50122
:1001A8000130F600EE287E013D113E154E019010FB
:1001B800F501EE287508F700F8017808003A0319E8
:1001C800E628EE287708003A03195028013A03195F
:1001D8005F28EE2808007603031DF328F428672912
:1001E8008B1340012008A3002108A4002208A500C1
:1001F800F6018B1705302406031D032904296729F6
:100208002F293F308E0430308C0467290E1467295B
:100218008E1467290E1567298E1567290E1667290A
:100228008E1667290C1667298C166729C0308E052B
:10023800CF308C0567290E1067298E1067290E119B
:1002480067298E1167290E1267298E1267290C12E9
:1002580067298C1267292508003A03190529013AEC
:1002680003190A29033A03190C29013A03190E291B
:10027800073A03191029013A03191229033A0319F5
:100288001429013A031916290F3A03191829013AB2
:1002980003191A29293A03191F29013A031921298F
:1002A800083A03192B291B3A03192329063A03197B
:1002B8002729013A03192529033A03192929083A54
:1002C80003192D2967290000EF28080045018E131E
:1002D800F0308E0570308E041008F0390138900027
:1002E800E0308F058F160F138F17F0309105FF3010
:1002F8008D004E019A1045018E170B1740010C1105
:1003080018117E01381139153C15400112157E016E
:100318003F113D113E154E011616F50108008B13CD
:100328004F011A179A171A16CF3040018C05CF3093
:100338009805CF307E01B805CF30BA05CF30BB0560
:10034800CF3040019205C0308E05C0309A05C030CC
:100358007E01CE05C030D005C030D105C030400187
:10036800940581316A2181318B17080081319321ED
:1003780081318031EF208131803120287E013D118B
:0A0388003E154E019010F50108002B
:020000040001F9
:08000000FF3FFF3FFF3FFF3F00
:0A000E008C173F379F3FFF1FFF3F95
:00000001FF
