:020000040000FA
:0400000080311C2807
:100008007E1480317E013F1D0A280B28102880317C
:100018002D2080317E013F114E01901C1428152897
:100028001A288231022280314E0190107E10090078
:1000380080311E28F001F101F201F301F401F5010C
:100048004001A501A601A701A8017E104001813148
:10005800FA297E013F113D0C890C0139013CF6005B
:10006800F60DF60D3D087606FB397606BD003E0C0A
:10007800890C0139013CF600F60DF60D3E087606AE
:10008800FB397606BE0045010C08F6007608FB0031
:100098008C01EE28F501F50A0130F0000030F1007E
:1000A800F401F40AF301F201F20A4E0190109A14D5
:1000B800FE281D307B02031C62286328E7288B304A
:1000C8007B02031868286928E72853307B02031845
:1000D8006E286F288B280130F6007608F307023067
:1000E8007306031D78287928A1280130F035F10D11
:1000F800890B7A287208F600F7017608F004770869
:10010800F1040130F6007608F407F301A12872081B
:10011800013CF6007608F2000130F035F10D890B4C
:1001280091287208F600F7017608F0047708F104C0
:100138000130F6007608F40789280E307406031D8E
:10014800A628A728FE287E013D113E154E019010D5
:100158007108F7007008F6000B30F736F60C890BBB
:10016800B1287618B828BA280130BB280030F80022
:1001780078084001A5007108F7007008F6000630FD
:10018800F736F60C890BC42876081F39F80078086A
:10019800A60070083F39F6007608A700711AD5281E
:1001A800D628DB284030F9000030FA00DD28F901B4
:1001B800FA017908F6007608A704F5010130F6007F
:1001C8007608A800FE287E013D113E154E019010CC
:1001D800F501FE287508F600F7017708003A0319BB
:1001E800F628FE287608003A03194E28013A031922
:1001F8005D28FE28080040012803031D042905295D
:1002080087298B132508A2002608A3002708A40025
:10021800A8018B1705302306031D132914298729E4
:1002280047293F30A00020088E043030A000200865
:100238008C0487290E1487298E1487290E1587297F
:100248008E1587290E1687298E1687290C16872959
:100258008C168729C030A00020088E05CF30A0005A
:1002680020088C0587290E1087298E1087290E11E2
:1002780087298E1187290E1287298E1287290C1239
:1002880087298C1287292408A000A1012108003A97
:1002980003194F2987292008003A03191529013A1B
:1002A80003191E29033A03192029013A031922299F
:1002B800073A03192429013A03192629033A03198D
:1002C8002829013A03192A290F3A03192C29013A36
:1002D80003192E29293A03193729013A031939290B
:1002E800083A031943291B3A03193B29063A03190B
:1002F8003F29013A03193D29033A03194129083ACC
:100308000319452987290000FF2808008B134F018E
:100318001A179A171A16CF304001A00020088C052A
:10032800CF30A00020089805CF30A00020087E011B
:10033800B805CF304001A00020087E01BA05CF30B3
:100348004001A00020087E01BB05CF304001A0007D
:1003580020089205C030A00020088E05C030A000FB
:1003680020089A05C030A00020087E01CE05C030C4
:100378004001A00020087E01D005C0304001A00047
:1003880020087E01D105C0304001A0002008940556
:100398008131D12181318B17080045018E13F0304E
:1003A8008E0570308E041008F03901389000E03066
:1003B8008F058F160F138F17F0309105FF308D00C2
:1003C8004E019A1045018E170B1740010C11181198
:1003D8007E01381139153C15400112157E013F1177
:1003E8003D113E154E011616F501080081318A218E
:1003F80081318031FF20813180311C287E013D11FF
:0A0408003E154E019010F5010800AA
:020000040001F9
:0A000E008C173F379F3FFF1FFF3F95
:00000001FF
